{
  "_format": "hh-sol-artifact-1",
  "contractName": "ProfileImageNfts",
  "sourceName": "contracts/Lock.sol",
  "abi": [
    {
      "inputs": [],
      "stateMutability": "nonpayable",
      "type": "constructor"
    },
    {
      "inputs": [
        {
          "internalType": "address",
          "name": "sender",
          "type": "address"
        },
        {
          "internalType": "uint256",
          "name": "tokenId",
          "type": "uint256"
        },
        {
          "internalType": "address",
          "name": "owner",
          "type": "address"
        }
      ],
      "name": "ERC721IncorrectOwner",
      "type": "error"
    },
    {
      "inputs": [
        {
          "internalType": "address",
          "name": "operator",
          "type": "address"
        },
        {
          "internalType": "uint256",
          "name": "tokenId",
          "type": "uint256"
        }
      ],
      "name": "ERC721InsufficientApproval",
      "type": "error"
    },
    {
      "inputs": [
        {
          "internalType": "address",
          "name": "approver",
          "type": "address"
        }
      ],
      "name": "ERC721InvalidApprover",
      "type": "error"
    },
    {
      "inputs": [
        {
          "internalType": "address",
          "name": "operator",
          "type": "address"
        }
      ],
      "name": "ERC721InvalidOperator",
      "type": "error"
    },
    {
      "inputs": [
        {
          "internalType": "address",
          "name": "owner",
          "type": "address"
        }
      ],
      "name": "ERC721InvalidOwner",
      "type": "error"
    },
    {
      "inputs": [
        {
          "internalType": "address",
          "name": "receiver",
          "type": "address"
        }
      ],
      "name": "ERC721InvalidReceiver",
      "type": "error"
    },
    {
      "inputs": [
        {
          "internalType": "address",
          "name": "sender",
          "type": "address"
        }
      ],
      "name": "ERC721InvalidSender",
      "type": "error"
    },
    {
      "inputs": [
        {
          "internalType": "uint256",
          "name": "tokenId",
          "type": "uint256"
        }
      ],
      "name": "ERC721NonexistentToken",
      "type": "error"
    },
    {
      "inputs": [
        {
          "internalType": "address",
          "name": "owner",
          "type": "address"
        }
      ],
      "name": "OwnableInvalidOwner",
      "type": "error"
    },
    {
      "inputs": [
        {
          "internalType": "address",
          "name": "account",
          "type": "address"
        }
      ],
      "name": "OwnableUnauthorizedAccount",
      "type": "error"
    },
    {
      "anonymous": false,
      "inputs": [
        {
          "indexed": true,
          "internalType": "address",
          "name": "owner",
          "type": "address"
        },
        {
          "indexed": true,
          "internalType": "address",
          "name": "approved",
          "type": "address"
        },
        {
          "indexed": true,
          "internalType": "uint256",
          "name": "tokenId",
          "type": "uint256"
        }
      ],
      "name": "Approval",
      "type": "event"
    },
    {
      "anonymous": false,
      "inputs": [
        {
          "indexed": true,
          "internalType": "address",
          "name": "owner",
          "type": "address"
        },
        {
          "indexed": true,
          "internalType": "address",
          "name": "operator",
          "type": "address"
        },
        {
          "indexed": false,
          "internalType": "bool",
          "name": "approved",
          "type": "bool"
        }
      ],
      "name": "ApprovalForAll",
      "type": "event"
    },
    {
      "anonymous": false,
      "inputs": [
        {
          "indexed": true,
          "internalType": "address",
          "name": "previousOwner",
          "type": "address"
        },
        {
          "indexed": true,
          "internalType": "address",
          "name": "newOwner",
          "type": "address"
        }
      ],
      "name": "OwnershipTransferred",
      "type": "event"
    },
    {
      "anonymous": false,
      "inputs": [
        {
          "indexed": true,
          "internalType": "address",
          "name": "from",
          "type": "address"
        },
        {
          "indexed": true,
          "internalType": "address",
          "name": "to",
          "type": "address"
        },
        {
          "indexed": true,
          "internalType": "uint256",
          "name": "tokenId",
          "type": "uint256"
        }
      ],
      "name": "Transfer",
      "type": "event"
    },
    {
      "inputs": [
        {
          "internalType": "address",
          "name": "to",
          "type": "address"
        },
        {
          "internalType": "uint256",
          "name": "tokenId",
          "type": "uint256"
        }
      ],
      "name": "approve",
      "outputs": [],
      "stateMutability": "nonpayable",
      "type": "function"
    },
    {
      "inputs": [
        {
          "internalType": "address",
          "name": "owner",
          "type": "address"
        }
      ],
      "name": "balanceOf",
      "outputs": [
        {
          "internalType": "uint256",
          "name": "",
          "type": "uint256"
        }
      ],
      "stateMutability": "view",
      "type": "function"
    },
    {
      "inputs": [],
      "name": "getAlltoken",
      "outputs": [
        {
          "components": [
            {
              "internalType": "uint256",
              "name": "id",
              "type": "uint256"
            },
            {
              "internalType": "string",
              "name": "uri",
              "type": "string"
            },
            {
              "internalType": "string",
              "name": "space",
              "type": "string"
            }
          ],
          "internalType": "struct ProfileImageNfts.RenderToken[]",
          "name": "",
          "type": "tuple[]"
        }
      ],
      "stateMutability": "view",
      "type": "function"
    },
    {
      "inputs": [
        {
          "internalType": "uint256",
          "name": "tokenId",
          "type": "uint256"
        }
      ],
      "name": "getApproved",
      "outputs": [
        {
          "internalType": "address",
          "name": "",
          "type": "address"
        }
      ],
      "stateMutability": "view",
      "type": "function"
    },
    {
      "inputs": [
        {
          "internalType": "address",
          "name": "owner",
          "type": "address"
        },
        {
          "internalType": "address",
          "name": "operator",
          "type": "address"
        }
      ],
      "name": "isApprovedForAll",
      "outputs": [
        {
          "internalType": "bool",
          "name": "",
          "type": "bool"
        }
      ],
      "stateMutability": "view",
      "type": "function"
    },
    {
      "inputs": [
        {
          "internalType": "address",
          "name": "recipients",
          "type": "address"
        },
        {
          "internalType": "string",
          "name": "_uri",
          "type": "string"
        }
      ],
      "name": "mint",
      "outputs": [
        {
          "internalType": "uint256",
          "name": "",
          "type": "uint256"
        }
      ],
      "stateMutability": "nonpayable",
      "type": "function"
    },
    {
      "inputs": [],
      "name": "name",
      "outputs": [
        {
          "internalType": "string",
          "name": "",
          "type": "string"
        }
      ],
      "stateMutability": "view",
      "type": "function"
    },
    {
      "inputs": [],
      "name": "owner",
      "outputs": [
        {
          "internalType": "address",
          "name": "",
          "type": "address"
        }
      ],
      "stateMutability": "view",
      "type": "function"
    },
    {
      "inputs": [
        {
          "internalType": "uint256",
          "name": "tokenId",
          "type": "uint256"
        }
      ],
      "name": "ownerOf",
      "outputs": [
        {
          "internalType": "address",
          "name": "",
          "type": "address"
        }
      ],
      "stateMutability": "view",
      "type": "function"
    },
    {
      "inputs": [],
      "name": "renounceOwnership",
      "outputs": [],
      "stateMutability": "nonpayable",
      "type": "function"
    },
    {
      "inputs": [
        {
          "internalType": "address",
          "name": "from",
          "type": "address"
        },
        {
          "internalType": "address",
          "name": "to",
          "type": "address"
        },
        {
          "internalType": "uint256",
          "name": "tokenId",
          "type": "uint256"
        }
      ],
      "name": "safeTransferFrom",
      "outputs": [],
      "stateMutability": "nonpayable",
      "type": "function"
    },
    {
      "inputs": [
        {
          "internalType": "address",
          "name": "from",
          "type": "address"
        },
        {
          "internalType": "address",
          "name": "to",
          "type": "address"
        },
        {
          "internalType": "uint256",
          "name": "tokenId",
          "type": "uint256"
        },
        {
          "internalType": "bytes",
          "name": "data",
          "type": "bytes"
        }
      ],
      "name": "safeTransferFrom",
      "outputs": [],
      "stateMutability": "nonpayable",
      "type": "function"
    },
    {
      "inputs": [
        {
          "internalType": "address",
          "name": "operator",
          "type": "address"
        },
        {
          "internalType": "bool",
          "name": "approved",
          "type": "bool"
        }
      ],
      "name": "setApprovalForAll",
      "outputs": [],
      "stateMutability": "nonpayable",
      "type": "function"
    },
    {
      "inputs": [
        {
          "internalType": "bytes4",
          "name": "interfaceId",
          "type": "bytes4"
        }
      ],
      "name": "supportsInterface",
      "outputs": [
        {
          "internalType": "bool",
          "name": "",
          "type": "bool"
        }
      ],
      "stateMutability": "view",
      "type": "function"
    },
    {
      "inputs": [],
      "name": "symbol",
      "outputs": [
        {
          "internalType": "string",
          "name": "",
          "type": "string"
        }
      ],
      "stateMutability": "view",
      "type": "function"
    },
    {
      "inputs": [
        {
          "internalType": "uint256",
          "name": "tokenId",
          "type": "uint256"
        }
      ],
      "name": "tokenURI",
      "outputs": [
        {
          "internalType": "string",
          "name": "",
          "type": "string"
        }
      ],
      "stateMutability": "view",
      "type": "function"
    },
    {
      "inputs": [
        {
          "internalType": "address",
          "name": "from",
          "type": "address"
        },
        {
          "internalType": "address",
          "name": "to",
          "type": "address"
        },
        {
          "internalType": "uint256",
          "name": "tokenId",
          "type": "uint256"
        }
      ],
      "name": "transferFrom",
      "outputs": [],
      "stateMutability": "nonpayable",
      "type": "function"
    },
    {
      "inputs": [
        {
          "internalType": "address",
          "name": "newOwner",
          "type": "address"
        }
      ],
      "name": "transferOwnership",
      "outputs": [],
      "stateMutability": "nonpayable",
      "type": "function"
    }
  ],
  "bytecode": "0x608060405234801561001057600080fd5b50336040518060400160405280600f81526020017f50726f66696c65496d6167654e465400000000000000000000000000000000008152506040518060400160405280600381526020017f50494e0000000000000000000000000000000000000000000000000000000000815250816000908161008d919061043d565b50806001908161009d919061043d565b505050600073ffffffffffffffffffffffffffffffffffffffff168173ffffffffffffffffffffffffffffffffffffffff16036101125760006040517f1e4fbdf70000000000000000000000000000000000000000000000000000000081526004016101099190610550565b60405180910390fd5b6101218161012760201b60201c565b5061056b565b6000600660009054906101000a900473ffffffffffffffffffffffffffffffffffffffff16905081600660006101000a81548173ffffffffffffffffffffffffffffffffffffffff021916908373ffffffffffffffffffffffffffffffffffffffff1602179055508173ffffffffffffffffffffffffffffffffffffffff168173ffffffffffffffffffffffffffffffffffffffff167f8be0079c531659141344cd1fd0a4f28419497f9722a3daafe3b4186f6b6457e060405160405180910390a35050565b600081519050919050565b7f4e487b7100000000000000000000000000000000000000000000000000000000600052604160045260246000fd5b7f4e487b7100000000000000000000000000000000000000000000000000000000600052602260045260246000fd5b6000600282049050600182168061026e57607f821691505b60208210810361028157610280610227565b5b50919050565b60008190508160005260206000209050919050565b60006020601f8301049050919050565b600082821b905092915050565b6000600883026102e97fffffffffffffffffffffffffffffffffffffffffffffffffffffffffffffffff826102ac565b6102f386836102ac565b95508019841693508086168417925050509392505050565b6000819050919050565b6000819050919050565b600061033a6103356103308461030b565b610315565b61030b565b9050919050565b6000819050919050565b6103548361031f565b61036861036082610341565b8484546102b9565b825550505050565b600090565b61037d610370565b61038881848461034b565b505050565b5b818110156103ac576103a1600082610375565b60018101905061038e565b5050565b601f8211156103f1576103c281610287565b6103cb8461029c565b810160208510156103da578190505b6103ee6103e68561029c565b83018261038d565b50505b505050565b600082821c905092915050565b6000610414600019846008026103f6565b1980831691505092915050565b600061042d8383610403565b9150826002028217905092915050565b610446826101ed565b67ffffffffffffffff81111561045f5761045e6101f8565b5b6104698254610256565b6104748282856103b0565b600060209050601f8311600181146104a75760008415610495578287015190505b61049f8582610421565b865550610507565b601f1984166104b586610287565b60005b828110156104dd578489015182556001820191506020850194506020810190506104b8565b868310156104fa57848901516104f6601f891682610403565b8355505b6001600288020188555050505b505050505050565b600073ffffffffffffffffffffffffffffffffffffffff82169050919050565b600061053a8261050f565b9050919050565b61054a8161052f565b82525050565b60006020820190506105656000830184610541565b92915050565b6126338061057a6000396000f3fe608060405234801561001057600080fd5b50600436106101165760003560e01c8063715018a6116100a2578063b88d4fde11610071578063b88d4fde146102cd578063c87b56dd146102e9578063d0def52114610319578063e985e9c514610349578063f2fde38b1461037957610116565b8063715018a61461026b5780638da5cb5b1461027557806395d89b4114610293578063a22cb465146102b157610116565b806323b872dd116100e957806323b872dd146101b557806328904431146101d157806342842e0e146101ef5780636352211e1461020b57806370a082311461023b57610116565b806301ffc9a71461011b57806306fdde031461014b578063081812fc14610169578063095ea7b314610199575b600080fd5b610135600480360381019061013091906118eb565b610395565b6040516101429190611933565b60405180910390f35b610153610477565b60405161016091906119de565b60405180910390f35b610183600480360381019061017e9190611a36565b610509565b6040516101909190611aa4565b60405180910390f35b6101b360048036038101906101ae9190611aeb565b610525565b005b6101cf60048036038101906101ca9190611b2b565b61053b565b005b6101d961063d565b6040516101e69190611cf0565b60405180910390f35b61020960048036038101906102049190611b2b565b610778565b005b61022560048036038101906102209190611a36565b610798565b6040516102329190611aa4565b60405180910390f35b61025560048036038101906102509190611d12565b6107aa565b6040516102629190611d4e565b60405180910390f35b610273610864565b005b61027d610878565b60405161028a9190611aa4565b60405180910390f35b61029b6108a2565b6040516102a891906119de565b60405180910390f35b6102cb60048036038101906102c69190611d95565b610934565b005b6102e760048036038101906102e29190611f0a565b61094a565b005b61030360048036038101906102fe9190611a36565b61096f565b60405161031091906119de565b60405180910390f35b610333600480360381019061032e919061202e565b610a91565b6040516103409190611d4e565b60405180910390f35b610363600480360381019061035e919061208a565b610acf565b6040516103709190611933565b60405180910390f35b610393600480360381019061038e9190611d12565b610b63565b005b60007f80ac58cd000000000000000000000000000000000000000000000000000000007bffffffffffffffffffffffffffffffffffffffffffffffffffffffff1916827bffffffffffffffffffffffffffffffffffffffffffffffffffffffff1916148061046057507f5b5e139f000000000000000000000000000000000000000000000000000000007bffffffffffffffffffffffffffffffffffffffffffffffffffffffff1916827bffffffffffffffffffffffffffffffffffffffffffffffffffffffff1916145b80610470575061046f82610be9565b5b9050919050565b606060008054610486906120f9565b80601f01602080910402602001604051908101604052809291908181526020018280546104b2906120f9565b80156104ff5780601f106104d4576101008083540402835291602001916104ff565b820191906000526020600020905b8154815290600101906020018083116104e257829003601f168201915b5050505050905090565b600061051482610c53565b5061051e82610cdb565b9050919050565b6105378282610532610d18565b610d20565b5050565b600073ffffffffffffffffffffffffffffffffffffffff168273ffffffffffffffffffffffffffffffffffffffff16036105ad5760006040517f64a0ae920000000000000000000000000000000000000000000000000000000081526004016105a49190611aa4565b60405180910390fd5b60006105c183836105bc610d18565b610d32565b90508373ffffffffffffffffffffffffffffffffffffffff168173ffffffffffffffffffffffffffffffffffffffff1614610637578382826040517f64283d7b00000000000000000000000000000000000000000000000000000000815260040161062e9392919061212a565b60405180910390fd5b50505050565b60606000600754905060008167ffffffffffffffff81111561066257610661611ddf565b5b60405190808252806020026020018201604052801561069b57816020015b61068861185e565b8152602001906001900390816106805790505b50905060005b8281101561076f57600073ffffffffffffffffffffffffffffffffffffffff166106ca82610798565b73ffffffffffffffffffffffffffffffffffffffff16146107625760006106f08261096f565b905060405180606001604052808381526020018281526020016040518060400160405280600181526020017f200000000000000000000000000000000000000000000000000000000000000081525081525083838151811061075557610754612161565b5b6020026020010181905250505b80806001019150506106a1565b50809250505090565b6107938383836040518060200160405280600081525061094a565b505050565b60006107a382610c53565b9050919050565b60008073ffffffffffffffffffffffffffffffffffffffff168273ffffffffffffffffffffffffffffffffffffffff160361081d5760006040517f89c62b640000000000000000000000000000000000000000000000000000000081526004016108149190611aa4565b60405180910390fd5b600360008373ffffffffffffffffffffffffffffffffffffffff1673ffffffffffffffffffffffffffffffffffffffff168152602001908152602001600020549050919050565b61086c610f4c565b6108766000610fd3565b565b6000600660009054906101000a900473ffffffffffffffffffffffffffffffffffffffff16905090565b6060600180546108b1906120f9565b80601f01602080910402602001604051908101604052809291908181526020018280546108dd906120f9565b801561092a5780601f106108ff5761010080835404028352916020019161092a565b820191906000526020600020905b81548152906001019060200180831161090d57829003601f168201915b5050505050905090565b61094661093f610d18565b8383611099565b5050565b61095584848461053b565b610969610960610d18565b85858585611208565b50505050565b6060600073ffffffffffffffffffffffffffffffffffffffff1661099283610798565b73ffffffffffffffffffffffffffffffffffffffff16036109e8576040517f08c379a00000000000000000000000000000000000000000000000000000000081526004016109df906121dc565b60405180910390fd5b6000600860008481526020019081526020016000208054610a08906120f9565b80601f0160208091040260200160405190810160405280929190818152602001828054610a34906120f9565b8015610a815780601f10610a5657610100808354040283529160200191610a81565b820191906000526020600020905b815481529060010190602001808311610a6457829003601f168201915b5050505050905080915050919050565b6000806007549050610aa384826113b9565b610aad81846114b2565b60076000815480929190610ac09061222b565b91905055508091505092915050565b6000600560008473ffffffffffffffffffffffffffffffffffffffff1673ffffffffffffffffffffffffffffffffffffffff16815260200190815260200160002060008373ffffffffffffffffffffffffffffffffffffffff1673ffffffffffffffffffffffffffffffffffffffff16815260200190815260200160002060009054906101000a900460ff16905092915050565b610b6b610f4c565b600073ffffffffffffffffffffffffffffffffffffffff168173ffffffffffffffffffffffffffffffffffffffff1603610bdd5760006040517f1e4fbdf7000000000000000000000000000000000000000000000000000000008152600401610bd49190611aa4565b60405180910390fd5b610be681610fd3565b50565b60007f01ffc9a7000000000000000000000000000000000000000000000000000000007bffffffffffffffffffffffffffffffffffffffffffffffffffffffff1916827bffffffffffffffffffffffffffffffffffffffffffffffffffffffff1916149050919050565b600080610c5f836114d7565b9050600073ffffffffffffffffffffffffffffffffffffffff168173ffffffffffffffffffffffffffffffffffffffff1603610cd257826040517f7e273289000000000000000000000000000000000000000000000000000000008152600401610cc99190611d4e565b60405180910390fd5b80915050919050565b60006004600083815260200190815260200160002060009054906101000a900473ffffffffffffffffffffffffffffffffffffffff169050919050565b600033905090565b610d2d8383836001611514565b505050565b600080610d3e846114d7565b9050600073ffffffffffffffffffffffffffffffffffffffff168373ffffffffffffffffffffffffffffffffffffffff1614610d8057610d7f8184866116d9565b5b600073ffffffffffffffffffffffffffffffffffffffff168173ffffffffffffffffffffffffffffffffffffffff1614610e1157610dc2600085600080611514565b6001600360008373ffffffffffffffffffffffffffffffffffffffff1673ffffffffffffffffffffffffffffffffffffffff168152602001908152602001600020600082825403925050819055505b600073ffffffffffffffffffffffffffffffffffffffff168573ffffffffffffffffffffffffffffffffffffffff1614610e94576001600360008773ffffffffffffffffffffffffffffffffffffffff1673ffffffffffffffffffffffffffffffffffffffff168152602001908152602001600020600082825401925050819055505b846002600086815260200190815260200160002060006101000a81548173ffffffffffffffffffffffffffffffffffffffff021916908373ffffffffffffffffffffffffffffffffffffffff160217905550838573ffffffffffffffffffffffffffffffffffffffff168273ffffffffffffffffffffffffffffffffffffffff167fddf252ad1be2c89b69c2b068fc378daa952ba7f163c4a11628f55a4df523b3ef60405160405180910390a4809150509392505050565b610f54610d18565b73ffffffffffffffffffffffffffffffffffffffff16610f72610878565b73ffffffffffffffffffffffffffffffffffffffff1614610fd157610f95610d18565b6040517f118cdaa7000000000000000000000000000000000000000000000000000000008152600401610fc89190611aa4565b60405180910390fd5b565b6000600660009054906101000a900473ffffffffffffffffffffffffffffffffffffffff16905081600660006101000a81548173ffffffffffffffffffffffffffffffffffffffff021916908373ffffffffffffffffffffffffffffffffffffffff1602179055508173ffffffffffffffffffffffffffffffffffffffff168173ffffffffffffffffffffffffffffffffffffffff167f8be0079c531659141344cd1fd0a4f28419497f9722a3daafe3b4186f6b6457e060405160405180910390a35050565b600073ffffffffffffffffffffffffffffffffffffffff168273ffffffffffffffffffffffffffffffffffffffff160361110a57816040517f5b08ba180000000000000000000000000000000000000000000000000000000081526004016111019190611aa4565b60405180910390fd5b80600560008573ffffffffffffffffffffffffffffffffffffffff1673ffffffffffffffffffffffffffffffffffffffff16815260200190815260200160002060008473ffffffffffffffffffffffffffffffffffffffff1673ffffffffffffffffffffffffffffffffffffffff16815260200190815260200160002060006101000a81548160ff0219169083151502179055508173ffffffffffffffffffffffffffffffffffffffff168373ffffffffffffffffffffffffffffffffffffffff167f17307eab39ab6107e8899845ad3d59bd9653f200f220920489ca2b5937696c31836040516111fb9190611933565b60405180910390a3505050565b60008373ffffffffffffffffffffffffffffffffffffffff163b11156113b2578273ffffffffffffffffffffffffffffffffffffffff1663150b7a02868685856040518563ffffffff1660e01b815260040161126794939291906122c8565b6020604051808303816000875af19250505080156112a357506040513d601f19601f820116820180604052508101906112a09190612329565b60015b611327573d80600081146112d3576040519150601f19603f3d011682016040523d82523d6000602084013e6112d8565b606091505b50600081510361131f57836040517f64a0ae920000000000000000000000000000000000000000000000000000000081526004016113169190611aa4565b60405180910390fd5b805181602001fd5b63150b7a0260e01b7bffffffffffffffffffffffffffffffffffffffffffffffffffffffff1916817bffffffffffffffffffffffffffffffffffffffffffffffffffffffff1916146113b057836040517f64a0ae920000000000000000000000000000000000000000000000000000000081526004016113a79190611aa4565b60405180910390fd5b505b5050505050565b600073ffffffffffffffffffffffffffffffffffffffff168273ffffffffffffffffffffffffffffffffffffffff160361142b5760006040517f64a0ae920000000000000000000000000000000000000000000000000000000081526004016114229190611aa4565b60405180910390fd5b600061143983836000610d32565b9050600073ffffffffffffffffffffffffffffffffffffffff168173ffffffffffffffffffffffffffffffffffffffff16146114ad5760006040517f73c6ac6e0000000000000000000000000000000000000000000000000000000081526004016114a49190611aa4565b60405180910390fd5b505050565b806008600084815260200190815260200160002090816114d29190612502565b505050565b60006002600083815260200190815260200160002060009054906101000a900473ffffffffffffffffffffffffffffffffffffffff169050919050565b808061154d5750600073ffffffffffffffffffffffffffffffffffffffff168273ffffffffffffffffffffffffffffffffffffffff1614155b1561168157600061155d84610c53565b9050600073ffffffffffffffffffffffffffffffffffffffff168373ffffffffffffffffffffffffffffffffffffffff16141580156115c857508273ffffffffffffffffffffffffffffffffffffffff168173ffffffffffffffffffffffffffffffffffffffff1614155b80156115db57506115d98184610acf565b155b1561161d57826040517fa9fbf51f0000000000000000000000000000000000000000000000000000000081526004016116149190611aa4565b60405180910390fd5b811561167f57838573ffffffffffffffffffffffffffffffffffffffff168273ffffffffffffffffffffffffffffffffffffffff167f8c5be1e5ebec7d5bd14f71427d1e84f3dd0314c0f7b2291e5b200ac8c7c3b92560405160405180910390a45b505b836004600085815260200190815260200160002060006101000a81548173ffffffffffffffffffffffffffffffffffffffff021916908373ffffffffffffffffffffffffffffffffffffffff16021790555050505050565b6116e483838361179d565b61179857600073ffffffffffffffffffffffffffffffffffffffff168373ffffffffffffffffffffffffffffffffffffffff160361175957806040517f7e2732890000000000000000000000000000000000000000000000000000000081526004016117509190611d4e565b60405180910390fd5b81816040517f177e802f00000000000000000000000000000000000000000000000000000000815260040161178f9291906125d4565b60405180910390fd5b505050565b60008073ffffffffffffffffffffffffffffffffffffffff168373ffffffffffffffffffffffffffffffffffffffff161415801561185557508273ffffffffffffffffffffffffffffffffffffffff168473ffffffffffffffffffffffffffffffffffffffff16148061181657506118158484610acf565b5b8061185457508273ffffffffffffffffffffffffffffffffffffffff1661183c83610cdb565b73ffffffffffffffffffffffffffffffffffffffff16145b5b90509392505050565b60405180606001604052806000815260200160608152602001606081525090565b6000604051905090565b600080fd5b600080fd5b60007fffffffff0000000000000000000000000000000000000000000000000000000082169050919050565b6118c881611893565b81146118d357600080fd5b50565b6000813590506118e5816118bf565b92915050565b60006020828403121561190157611900611889565b5b600061190f848285016118d6565b91505092915050565b60008115159050919050565b61192d81611918565b82525050565b60006020820190506119486000830184611924565b92915050565b600081519050919050565b600082825260208201905092915050565b60005b8381101561198857808201518184015260208101905061196d565b60008484015250505050565b6000601f19601f8301169050919050565b60006119b08261194e565b6119ba8185611959565b93506119ca81856020860161196a565b6119d381611994565b840191505092915050565b600060208201905081810360008301526119f881846119a5565b905092915050565b6000819050919050565b611a1381611a00565b8114611a1e57600080fd5b50565b600081359050611a3081611a0a565b92915050565b600060208284031215611a4c57611a4b611889565b5b6000611a5a84828501611a21565b91505092915050565b600073ffffffffffffffffffffffffffffffffffffffff82169050919050565b6000611a8e82611a63565b9050919050565b611a9e81611a83565b82525050565b6000602082019050611ab96000830184611a95565b92915050565b611ac881611a83565b8114611ad357600080fd5b50565b600081359050611ae581611abf565b92915050565b60008060408385031215611b0257611b01611889565b5b6000611b1085828601611ad6565b9250506020611b2185828601611a21565b9150509250929050565b600080600060608486031215611b4457611b43611889565b5b6000611b5286828701611ad6565b9350506020611b6386828701611ad6565b9250506040611b7486828701611a21565b9150509250925092565b600081519050919050565b600082825260208201905092915050565b6000819050602082019050919050565b611bb381611a00565b82525050565b600082825260208201905092915050565b6000611bd58261194e565b611bdf8185611bb9565b9350611bef81856020860161196a565b611bf881611994565b840191505092915050565b6000606083016000830151611c1b6000860182611baa565b5060208301518482036020860152611c338282611bca565b91505060408301518482036040860152611c4d8282611bca565b9150508091505092915050565b6000611c668383611c03565b905092915050565b6000602082019050919050565b6000611c8682611b7e565b611c908185611b89565b935083602082028501611ca285611b9a565b8060005b85811015611cde5784840389528151611cbf8582611c5a565b9450611cca83611c6e565b925060208a01995050600181019050611ca6565b50829750879550505050505092915050565b60006020820190508181036000830152611d0a8184611c7b565b905092915050565b600060208284031215611d2857611d27611889565b5b6000611d3684828501611ad6565b91505092915050565b611d4881611a00565b82525050565b6000602082019050611d636000830184611d3f565b92915050565b611d7281611918565b8114611d7d57600080fd5b50565b600081359050611d8f81611d69565b92915050565b60008060408385031215611dac57611dab611889565b5b6000611dba85828601611ad6565b9250506020611dcb85828601611d80565b9150509250929050565b600080fd5b600080fd5b7f4e487b7100000000000000000000000000000000000000000000000000000000600052604160045260246000fd5b611e1782611994565b810181811067ffffffffffffffff82111715611e3657611e35611ddf565b5b80604052505050565b6000611e4961187f565b9050611e558282611e0e565b919050565b600067ffffffffffffffff821115611e7557611e74611ddf565b5b611e7e82611994565b9050602081019050919050565b82818337600083830152505050565b6000611ead611ea884611e5a565b611e3f565b905082815260208101848484011115611ec957611ec8611dda565b5b611ed4848285611e8b565b509392505050565b600082601f830112611ef157611ef0611dd5565b5b8135611f01848260208601611e9a565b91505092915050565b60008060008060808587031215611f2457611f23611889565b5b6000611f3287828801611ad6565b9450506020611f4387828801611ad6565b9350506040611f5487828801611a21565b925050606085013567ffffffffffffffff811115611f7557611f7461188e565b5b611f8187828801611edc565b91505092959194509250565b600067ffffffffffffffff821115611fa857611fa7611ddf565b5b611fb182611994565b9050602081019050919050565b6000611fd1611fcc84611f8d565b611e3f565b905082815260208101848484011115611fed57611fec611dda565b5b611ff8848285611e8b565b509392505050565b600082601f83011261201557612014611dd5565b5b8135612025848260208601611fbe565b91505092915050565b6000806040838503121561204557612044611889565b5b600061205385828601611ad6565b925050602083013567ffffffffffffffff8111156120745761207361188e565b5b61208085828601612000565b9150509250929050565b600080604083850312156120a1576120a0611889565b5b60006120af85828601611ad6565b92505060206120c085828601611ad6565b9150509250929050565b7f4e487b7100000000000000000000000000000000000000000000000000000000600052602260045260246000fd5b6000600282049050600182168061211157607f821691505b602082108103612124576121236120ca565b5b50919050565b600060608201905061213f6000830186611a95565b61214c6020830185611d3f565b6121596040830184611a95565b949350505050565b7f4e487b7100000000000000000000000000000000000000000000000000000000600052603260045260246000fd5b7f55524920646f6573206e6f74206578697374206f6e2074686174204944000000600082015250565b60006121c6601d83611959565b91506121d182612190565b602082019050919050565b600060208201905081810360008301526121f5816121b9565b9050919050565b7f4e487b7100000000000000000000000000000000000000000000000000000000600052601160045260246000fd5b600061223682611a00565b91507fffffffffffffffffffffffffffffffffffffffffffffffffffffffffffffffff8203612268576122676121fc565b5b600182019050919050565b600081519050919050565b600082825260208201905092915050565b600061229a82612273565b6122a4818561227e565b93506122b481856020860161196a565b6122bd81611994565b840191505092915050565b60006080820190506122dd6000830187611a95565b6122ea6020830186611a95565b6122f76040830185611d3f565b8181036060830152612309818461228f565b905095945050505050565b600081519050612323816118bf565b92915050565b60006020828403121561233f5761233e611889565b5b600061234d84828501612314565b91505092915050565b60008190508160005260206000209050919050565b60006020601f8301049050919050565b600082821b905092915050565b6000600883026123b87fffffffffffffffffffffffffffffffffffffffffffffffffffffffffffffffff8261237b565b6123c2868361237b565b95508019841693508086168417925050509392505050565b6000819050919050565b60006123ff6123fa6123f584611a00565b6123da565b611a00565b9050919050565b6000819050919050565b612419836123e4565b61242d61242582612406565b848454612388565b825550505050565b600090565b612442612435565b61244d818484612410565b505050565b5b818110156124715761246660008261243a565b600181019050612453565b5050565b601f8211156124b65761248781612356565b6124908461236b565b8101602085101561249f578190505b6124b36124ab8561236b565b830182612452565b50505b505050565b600082821c905092915050565b60006124d9600019846008026124bb565b1980831691505092915050565b60006124f283836124c8565b9150826002028217905092915050565b61250b8261194e565b67ffffffffffffffff81111561252457612523611ddf565b5b61252e82546120f9565b612539828285612475565b600060209050601f83116001811461256c576000841561255a578287015190505b61256485826124e6565b8655506125cc565b601f19841661257a86612356565b60005b828110156125a25784890151825560018201915060208501945060208101905061257d565b868310156125bf57848901516125bb601f8916826124c8565b8355505b6001600288020188555050505b505050505050565b60006040820190506125e96000830185611a95565b6125f66020830184611d3f565b939250505056fea2646970667358221220d605e4d27f7b83e7208bc358dc89afaa12ea4c62727b1f770877691c3759326c64736f6c634300081c0033",
  "linkReferences": {},
  "deployedLinkReferences": {}
}